:020000022000DC
:1070000000000420197202000172020003720200E3
:1070100005720200077202000972020000000000FF
:107020000000000000000000000000000B720200E1
:107030000D720200000000000F72020011720200C7
:10704000794A03001372020045F90200137202002C
:1070500013720200137202003DF802001372020064
:107060001372020013720200137202001372020004
:1070700013720200137202001372020013720200F4
:1070800013720200ED640300137202001372020017
:107090001372020013720200DDF803001372020083
:1070A00013720200137202001372020013720200C4
:1070B00013720200137202000000000000000000C2
:1070C00013720200137202001372020013720200A4
:1070D000137202001372020013720200F9360300E9
:1070E000137202001372020013720200000000000B
:1070F0000000000013720200000000001372020082
:10710000000000000000000000000000000000007F
:10711000000000000000000000000000000000006F
:10712000000000000000000000000000000000005F
:10713000000000000000000000000000000000004F
:10714000000000000000000000000000000000003F
:10715000000000000000000000000000000000002F
:10716000000000000000000000000000000000001F
:10717000000000000000000000000000000000000F
:1071800000000000000000000000000000000000FF
:1071900000000000000000000000000000000000EF
:1071A00000000000000000000000000000000000DF
:1071B00000000000000000000000000000000000CF
:1071C00000000000000000000000000000000000BF
:1071D00000000000000000000000000000000000AF
:1071E000000000000000000000000000000000009F
:1071F000000000000000000000000000000000008F
:10720000FEE7FEE7FEE7FEE7FEE7FEE7FEE7FEE756
:10721000FEE7FEE700F002B8FFF7FCBF0F484FF0B3
:107220000701884385460E4880470E48016841F4AF
:1072300070010160BFF34F8FBFF36F8F00F01AB87A
:1072400009480A490A4A884207D0521A05D00378E9
:1072500001300B700131013AF9D170470000042070
:107260000193020088ED00E06C0D04000023002073
:10727000182300203A493B480A1A02D007229143BA
:107280008D46394939480A1A06D00722914381F3BD
:107290000988022282F3148835483649364A00F0BC
:1072A00041F836483649374A00F03CF83648374905
:1072B000374A00F037F837483749384A00F032F893
:1072C00037483849384A00F02DF838483849394AA3
:1072D00000F028F838483949394A00F023F839488D
:1072E0003949002200F036F838483949002200F0C8
:1072F00031F838483849091A19F0BFFB374A904726
:1073000025482649884205D00268043003B49047D6
:1073100003BCF7E700208646EC4600200021304AF7
:107320009047FEE7884214D0521A12D003460B430E
:1073300013430324234206D1036804300B60043155
:10734000043AF9D17047037801300B700131013AEA
:10735000F9D17047884202D002700130FAE77047D5
:107360000000042000E003200000042000000420AE
:10737000B8300400182300206C240020E4730200BD
:10738000E4730200D00B0400B8300400182300207E
:1073900018230020840D0400840D0400840D0400D3
:1073A000840D0400840D0400840D0400840D040089
:1073B000840D0400B83004000C3204006C2400205A
:1073C0006C2400206C240020FC470020FC47002097
:1073D000FC470020FC470020FC67002041720200AF
:0473E0004D810200D9
:1073E40072DF704700BF184673DF704700BF18464E
:1073F40076DF704700BF18467ADF704700BF184633
:107404007CDF704700BF18467FDF704700BF184617
:107414008FDF704700BF1846B1DF704700BF1846C2
:1074240082B00190019B184602B0704782B001906F
:10743400019B184602B0704700B587B001900B4617
:107444008DF803300198FFF7F1FF05909DF80330A4
:10745400032B21D801A252F823F000BF817402004B
:107464009D740200717402009D74020001220D4992
:107474000D4814F06BFB04900FE000BF059814F066
:1074840057FB039001220749074814F05FFB029061
:10749400029B002BF1D000E000BF00BF07B05DF8F5
:1074A40004FB00BFD4330020980D040000B583B062
:1074B40003460091ADF80630BDF80630009A19462F
:1074C40003480DF055FE00BF03B05DF804FB00BF98
:1074D400EFBEADDE00B583B00EF0FAF90190019B6A
:1074E4000093009B002B04D0044AF02100980DF077
:1074F4003FFE00BF03B05DF804FB00BFBC0D0400F9
:1075040000B587B09DF80030012262F303038DF8C3
:1075140000309DF80030012262F307138DF800302B
:107524006B460C221B491846FFF76AFF0590059B22
:107534000493049B002B05D0174A4FF482710498DE
:107544000DF016FE01AB08220021184619F00EFBBF
:107554005023ADF80430A023ADF806300023ADF875
:1075640008304FF4C873ADF80A3001AB1846FFF782
:1075740043FF0590059B0393039B002B05D0064A0C
:107584004FF4877103980DF0F3FD00BF07B05DF869
:1075940004FB00BFF40D0400BC0D040000B583B06F
:1075A4000021094803F012FE0190019B0093009B07
:1075B400002B05D0054A40F2171100980DF0D8FDB4
:1075C40000BF03B05DF804FBB8280020BC0D040024
:1075D40000B5ABB041F22353ADF81C30374B9B7C64
:1075E4008DF81E3017AB3C220021184619F0BEFA64
:1075F40002238DF85C3001238DF85E3006238DF86C
:107604005F3008AB3C220021184619F0AFFA012381
:10761400ADF8303007AB0D93294B196817AB294AE5
:10762400184602F0F2FB2990299B2893289B002BF3
:1076340005D0254A40F2651128980DF099FD204B9C
:10764400996808AB214A184602F0DFFB2990299B70
:107654002793279B002B05D01B4A4FF4B47127981E
:107664000DF086FD01AB18220021184619F07EFAB0
:1076740001238DF819300023ADF8103001238DF863
:1076840004300023029300238DF818304023039321
:1076940001AB1A460A490E48FFF7A2FE2990299B1E
:1076A4002693269B002B05D0074A40F27711269893
:1076B4000DF05EFD00BF2BB05DF804FBA028002098
:1076C4003423002038230020BC0D04004023002074
:1076D4003223002000B583B00190054A40F28511A1
:1076E40001980DF045FD00BF03B05DF804FB00BF39
:1076F400BC0D040000B583B003460091ADF806301C
:1077040013468DF805309DF80530002B06D0022075
:1077140000F0B2FE064800F071FC05E0022000F023
:10772400C5FE044800F06AFC00BF03B05DF804FB2A
:10773400040E0400180E040000B583B00190054A3D
:107744004FF4CF7101980DF013FD00BF03B05DF845
:1077540004FB00BFBC0D040000B585B00190019B83
:10776400D3F8843419461A4800F048FC019BD3F836
:1077740084340393039B3F2B1FD920230393039B40
:10778400013B03930399134800F038FC019B8033B9
:107794000399184600F056FC03990F4800F02EFC9C
:1077A400019BD3F88424039BD31A8033019A134496
:1077B4000399184600F046FC05E0019B80330399C9
:1077C400184600F03FFC00BF05B05DF804FB00BFA5
:1077D4002C0E0400440E0400640E040000B583B0B3
:1077E40001900091009B1B78042B3DD801A252F814
:1077F40023F000BF0D7802004178020055780200A2
:107804005D78020065780200009B1B7919461A48CE
:1078140000F0F4FB009B1B79042B27D801A252F83B
:1078240023F000BF3D7802003D7802003D7802005D
:107834003D7802003D78020000BF17E0009B1B79F1
:107844001946009B9B681A460C4800F0D7FB0EE0D3
:107854000B4800F0D3FB0AE00A4800F0CFFB06E037
:107864000948FFF779FF02E000BF00E000BF00BF56
:1078740003B05DF804FB00BF840E0400980E0400FE
:10788400B80E0400CC0E0400EC2A002000B595B01C
:1078940000230F9301AB38220021184619F066F932
:1078A40000230093474B00936B461946464803F068
:1078B40071FD1390139B1293129B002B05D0434A26
:1078C4004FF4F67112980DF053FC414B0F930FAB2C
:1078D4001946404804F026FE1390139B1193119B04
:1078E400002B05D0394A4FF4F97111980DF040FC82
:1078F40001AB38220021184619F038F9364B0293AF
:10790400364B0193364B0393364B0E9301238DF87C
:1079140010304FF495620021314819F027F9304BAB
:10792400012283F8A4242E4A92F89C3443F00803DD
:1079340082F89C342A4A92F89C3443F0040382F877
:107944009C34274B002283F8A524254B4FF48062F6
:10795400C3F8A024244B059301238DF81830012388
:107964008DF81A3001238DF81B3001238DF81C305B
:107974001D4B08934FF49563ADF830301B4B0B93BC
:1079840001238DF8283001238DF829303C23ADF8EC
:1079940034301E23ADF8363001AB1946124804F0DA
:1079A4000DFF1390139B1093109B002B05D0074AD7
:1079B40040F2192110980DF0DBFB00BF15B05DF803
:1079C40004FB00BFD9760200CC280020BC0D0400C3
:1079D400F9760200A02800203D770200E17702003A
:1079E400EC2A00201C230020D8280020942F0020FB
:1079F40000B585B00190019B1B78002B11D10B4B76
:107A04001B883B211846FFF7F3FC0390039B02936A
:107A1400029B002B05D0064A40F22F2102980DF05C
:107A2400A7FB00BF05B05DF804FB00BF30230020B6
:107A3400BC0D040000B583B00190054A40F23A2120
:107A440001980DF095FB00BF03B05DF804FB00BF87
:107A5400BC0D040000B58BB001AB1C2200211846FC
:107A640019F084F8002301934FF4A02302934FF4F8
:107A7400A033039303238DF810300023ADF81230A4
:107A840000238DF814300C4B06930C4B079301AB79
:107A9400184602F097FC0990099B0893089B002B59
:107AA40005D0074A40F2512108980DF061FB00BF50
:107AB4000BB05DF804FB00BFF5790200397A0200CF
:107AC400BC0D040000B583B00C4B1B780121184693
:107AD400FFF78AFC0190019B0093009B002B05D0CB
:107AE400074A40F25B2100980DF042FB002000F0B1
:107AF400C3FC00BF03B05DF804FB00BF32230020C9
:107B0400BC0D040000B58DB001900091019B1B8851
:107B1400562B00F0DF80562B00F3F280522B00F03E
:107B2400AF80522B00F3EC80212B2DDC102BC0F204
:107B3400E780103B112B00F2E38001A252F823F0FE
:107B4400957B0200F37B0200057D0200297C020084
:107B5400057D0200057D0200057D0200057D020011
:107B6400057D0200057D0200057D0200057D020001
:107B7400057D0200057D0200057D0200057D0200F1
:107B8400057D0200517C02003B2B00F08D80B7E0A4
:107B9400644800F033FA012000F06EFC002000F08D
:107BA40085FC019B9A88604B1A805F4B1B881946A1
:107BB4005E4803F011FC0B900B9B0493049B002B79
:107BC40005D05B4A40F2722104980DF0D1FA0DF011
:107BD4000FFA0B900B9B0393039B002B00F09280F6
:107BE400534A4FF41D7103980DF0C2FA8AE05148CC
:107BF40000F004FA012000F059FC4B4B4FF6FF72E1
:107C04001A800DF021FA0B900B9B0593059B002B1A
:107C140005D0474A4FF41F7105980DF0A9FAFFF7F4
:107C240051FF7AE0404B1888002300228521FFF79A
:107C3400EBFB0B900B9B0693069B002B64D03C4AFA
:107C440040F2862106980DF093FA5DE000238DF84A
:107C5400083000238DF80930019B9B8802AA114645
:107C64001846FFF7D5FB0B900B9B0793079B002B44
:107C74004CD02F4A40F2922107980DF079FA45E052
:107C8400294B1888002300220021FFF7C5FB0B9025
:107C94000B9B0993099B002B3AD0254A4FF426717C
:107CA40009980DF065FA33E0234800F0A7F9019B29
:107CB4009B8813211846FFF79BFB0B900B9B0893A3
:107CC400089B002B26D01A4A4FF4287108980DF00F
:107CD4004FFA1FE0194800F091F9019B9B8813218A
:107CE4001846FFF785FB0B900B9B0A930A9B002B0E
:107CF40012D00F4A4FF42A710A980DF039FA0BE0AA
:107D040000BF0AE000BF08E000BF06E000BF04E0D7
:107D140000BF02E000BF00E000BF00BF0DB05DF88F
:107D240004FB00BFE40E040030230020CC28002014
:107D3400BC0D0400F00E0400000F0400180F040032
:107D440000B587B017F0E8FC0590059B0493049BED
:107D5400002B05D0164A40F2BB2104980DF008FA16
:107D64000023019301AB1946012017F0EBFD0590A8
:107D7400059B0393039B002B05D00D4A40F2C121C0
:107D840003980DF0F5F901AB184617F0CFFE0590F6
:107D9400059B0293029B002B05D0054A40F2C521A6
:107DA40002980DF0E5F900BF07B05DF804FB00BFD1
:107DB400BC0D040000B583B04FF48041002016F0E0
:107DC40007FC0190019B0093009B002B05D0054A02
:107DD40040F2FF2100980DF0CBF900BF03B05DF82D
:107DE40004FB00BFBC0D040000B583B00FF0E2FC3F
:107DF4000190019B0093009B002B05D0044A40F2A4
:107E04000B3100980DF0B4F900BF03B05DF804FB2A
:107E1400BC0D040008B516F023FF034683F00103EC
:107E2400DBB2002B01D00FF0DBFC00BF08BD00006B
:107E340000B583B003468DF807309DF80730023B48
:107E44000C2B31D801A252F823F000BFAD7E020002
:107E5400AD7E0200AD7E0200AD7E0200AD7E02006A
:107E6400AD7E02008B7E0200A17E0200A77E02008E
:107E7400AD7E0200AD7E0200AD7E0200857E020072
:107E840010F0A8FB13E00BF03FFE034683F0010360
:107E9400DBB2002B0AD010F097FB07E010F0D4FB04
:107EA40005E010F0ABFB02E000BF00E000BF00BF44
:107EB40003B05DF804FB00BF00B585B012F020F9F3
:107EC400144810F0D3FA0390039B0293029B002BF7
:107ED40005D0114A40F2573102980DF049F90F4884
:107EE400FFF79EFA0190019810F0D8FE0390039BCF
:107EF4000093009B002B05D0074A40F25B310098A9
:107F04000DF036F910F060FB10F078FB00BF05B0FF
:107F14005DF804FB580F0400BC0D0400980D040028
:107F240000B585B003468DF807309DF80730162B51
:107F34000AD0162B13D80E2B02D00F2B08D00EE02C
:107F4400094B01221A700BE0074B00221A7007E05C
:107F540000220421054813F0B5FE039000E000BFA1
:107F640005B05DF804FB00BF18340020980D040030
:107F740000B583B00D49022000F0D4FE0190019BAE
:107F84000093009B002B05D0094A40F28F310098E2
:107F94000DF0EEF816220021002000F031FF012040
:107FA40000F061FB00BF03B05DF804FB257F020015
:107FB400BC0D040000B583B006F070F80190019B7D
:107FC4000093009B002B05D00B4A4FF46771009877
:107FD4000DF0CEF8002006F0C7F800BF06F054F903
:107FE400034683F00103DBB2002BF7D100BF00BFCF
:107FF40003B05DF804FB00BFBC0D04000FB400B572
:1080040083B0402200210D4818F0B0FD05AB019368
:10801400019B049A4FF48071084818F05EF80748F1
:1080240018F035FD03461A460449054813F034FD9B
:1080340000BF03B05DF804EB04B07047D8330020F0
:10804400980D04002DE9F04788B000AF78603960DE
:108054006B469A4610237B617A6913465B0013448E
:108064005E1C731E3B6132460023904699464FF0D6
:1080740000024FF000034FEAC90343EA58734FEA82
:10808400C8023246002314461D464FF000024FF04A
:108094000003EB0043EA5473E20033460733DB0882
:1080A400DB00ADEB030D6B460033FB600023FB618B
:1080B40039E033461A460021F86818F057FD3A684B
:1080C400FB69D21A7B69934228BF1346BB60002325
:1080D400BB6112E0BA6913465B001344FA68D01816
:1080E400FA69BB6913447A6813441B78134A042160
:1080F40017F0DAFFBB690133BB61BA69BB689A4206
:10810400E8D3BA6813465B0013441A46F9680C486E
:1081140013F0C2FC02220B49094813F0BDFC7B6931
:10812400FA691344FB61FA693B689A42C1D3D546A4
:1081340000BF2037BD46BDE8F08700BF4C0F0400E8
:10814400980D0400540F040008B5FFF733FEFFF741
:1081540031FFFFF7BFF9FFF7AFFEFFF709FFFFF7A6
:1081640043FEFFF7EDFDFFF7CBF9FFF717FAFFF733
:108174008DFBFFF72DFAFFF76DFCFFF7A3FC00BFA3
:1081840010F00AFD0346002BFAD1FFF743FEF6E791
:10819400BFF34F8F00BF064BDB6803F4E062044972
:1081A400044B1343CB60BFF34F8F00BF00BFFDE709
:1081B40000ED00E00400FA0500B583B00190019BD6
:1081C4001B68184600F002F90346002B04D10B4942
:1081D4004FF4F670FFF76AF9019B1B681F2B02D856
:1081E4004FF0A04306E0019B1B6803F01F02019BB4
:1081F4001A60034B184603B05DF804FB640F0400D7
:108204000003005000B585B00190084611461A4697
:1082140003468DF803300B468DF8023013468DF873
:10822400013001AB1846FFF7C7FF03909DF8032008
:108234009DF802305B001A439DF801309B001A43FD
:108244009DF818301B0242EA03019DF81C301B0400
:10825400019A1943039B02F5E07243F8221000BF10
:1082640005B05DF804FB00B585B0039000230193CD
:10827400002300930023012201210398FFF7C2FF8A
:1082840000BF05B05DF804FB00B585B003900B4654
:108294008DF80B309DF80B300022019200220092E1
:1082A400002200210398FFF7ADFF00BF05B05DF881
:1082B40004FB00B585B0019001AB1846FFF77CFFC5
:1082C4000390019B012202FA03F31946039800F07C
:1082D40069F800BF05B05DF804FB00B585B00190F6
:1082E40001AB1846FFF768FF0390019B012202FAD5
:1082F40003F31946039800F05FF800BF05B05DF87A
:1083040004FB00B585B0019001AB1846FFF754FF9C
:108314000390039BD3F804350293029BDA43019B39
:10832400012101FA03F31A40039BC3F80825019BBA
:1083340001229A40029B1A40039BC3F80C2500BFFC
:1083440005B05DF804FB00B583B001900091009B7B
:10835400002B03D10198FFF7C0FF02E00198FFF75B
:10836400A8FF00BF03B05DF804FB00B585B0019021
:1083740001AB1846FFF720FF0390039800F00AF8BA
:108384000246019B22FA03F303F00103184605B0E9
:108394005DF804FB82B00190019BD3F804351846C4
:1083A40002B0704782B001900091019B009AC3F81B
:1083B400082500BF02B0704782B001900091019B74
:1083C400009AC3F80C2500BF02B0704784B0019036
:1083D400019B5B09029300230393029B002B03D0B0
:1083E400029B012B04D007E04FF0FF33039303E01B
:1083F4004FF6FF73039300BF019B03F01F03019328
:10840400039A019B22FA03F303F00103002B14BF28
:1084140001230023DBB2184604B0704700B585B0D1
:108424000190019B032B03D911493A20FFF73EF831
:10843400104A019B13441B781846FFF796FF034626
:10844400002B14BF012300238DF80F309DF80F304B
:10845400002B14BF01230023DBB283F00103DBB242
:1084640003F00103DBB2184605B05DF804FB00BF5E
:108474008C0F0400B40F040000B583B00190019B7D
:10848400032B03D907494120FFF710F8064A019B43
:1084940013441B7800211846FFF755FF00BF03B0B3
:1084A4005DF804FB8C0F0400B40F040000B583B026
:1084B4000190019B032B03D907494720FEF7F6FFE0
:1084C400064A019B13441B7801211846FFF73BFF22
:1084D40000BF03B05DF804FB8C0F0400B40F04006C
:1084E40000B583B00023019305E00198FFF7DEFF98
:1084F400019B01330193019B032BF6D900BF00BFFD
:1085040003B05DF804FB00B583B00023019305E0DC
:108514000198FFF7B1FF019B01330193019B032BEA
:10852400F6D900BF00BF03B05DF804FB00B583B00B
:108534000190019B032B03D907495F20FEF7B6FF87
:10854400064A019B13441B781846FFF7DAFE00BF66
:1085540003B05DF804FB00BF8C0F0400B40F0400EB
:1085640008B54FF01023D3F8043303F00703072BA7
:1085740021D1124B0122C3F8042500BF0F4BD3F8BD
:108584000034002BFAD04FF01023D3F8043323F037
:1085940007034FF0102243F00403C2F80433074BDF
:1085A4000022C3F8042500BF044BD3F80034002B89
:1085B400FAD0FFF7EDFD00BF08BD00BF00E00140A9
:1085C40000B583B04FF08043D3F8403603F0010385
:1085D400002B01D0FFF7C4FF0023019309E0094AEF
:1085E400019B13441B781846FFF73DFE019B0133A2
:1085F4000193019B032BF2D9FFF772FF00BF03B075
:108604005DF804FBB40F040000B583B000230193AC
:1086140007E0262303211846FFF736FE019B0133AA
:108624000193019B002BF4D000BF00BF03B05DF8A1
:1086340004FB84B001904FF0FF33029300230393B3
:108644000AE026231A46019B934202D1039B02931C
:1086540005E0039B01330393039B002BF1D0029BA2
:10866400184604B0704700B583B00190019B03F035
:108674000103002B01D0FFF7A3FF019B03F00203CA
:10868400002B01D0FFF7C0FF00BF03B05DF804FB6F
:1086940000B587B003460A468DF8073013468DF8B7
:1086A400063000238DF81730002304939DF807301B
:1086B4001846FFF7BEFF0490049B002B62D19DF87F
:1086C4000630022B52D0022B5CDC002B31D0012B64
:1086D40058D13549049A13465B0013440B441B7864
:1086E4008DF817303049049A13465B0013440B4449
:1086F40001331B78002B0ED02C4B2D4A4FF48041B4
:1087040018460DF05DF90390039B002B03D1284A12
:108714009DF8073013702449049A13465B001344F0
:108724000B4402331978234A049B13440A461A70F3
:1087340028E01E4B18460DF09BF91E4A049B134477
:1087440019781948049A13465B001344034402330E
:108754001B78994215D11449049A13465B001344BB
:108764000B4402331B788DF817300AE00E49049A43
:1087740013465B0013440B4401331B788DF8173008
:1087840000E000BF9DF81730002B09D00A4B1B688E
:10879400002B05D0084B1B689DF8172010469847FE
:1087A40000BF07B05DF804FBB43400208823002028
:1087B400B7340020B8340020B034002000B583B0B2
:1087C4000190019B1B7802211846FFF761FF00BF4F
:1087D40003B05DF804FB000000B583B00C4B1B78BC
:1087E400002B0FD00023019308E0019B022B02D041
:1087F4000198FFF75BFE019B01330193019B032B5F
:10880400F3D901E0FFF76CFE00BF03B05DF804FB91
:10881400AC3400202DE9D04F92B003468DF83F30A0
:108824000023119300231093CC4B1B78002B04D00E
:10883400CA4A00231370FFF7CFFF9DF83F30172B70
:1088440000F23F8201A252F823F000BFB188020077
:10885400C9880200C988020065890200018A0200F1
:108864007D8A0200118B0200318B0200418B0200D1
:108874006D8B02008B8B0200A98B0200C78B020058
:10888400D58B0200D58B0200D58B0200D58B02005C
:10889400D58B0200698C0200778C02008B8C02005D
:1088A4009F8C0200B98C0200B98C0200FFF794FF80
:1088B400AB4B18460DF0DCF81190AA4A9DF83F30F6
:1088C4001370FFE10020FFF7A9FD0346002B0DD034
:1088D4000020FFF7EBFD9DF83F30022B02D14FF44F
:1088E400E16301E04FF47A6310930BE00020FFF79B
:1088F400C3FD9DF83F30022B01D1C82301E04FF4A2
:10890400C8731093974A9DF83F301370944C109B92
:108914000022009301924FF000024FF00003DDE9C2
:1089240000673946CB03314643EA51433146CA0313
:1089340012F57A71029143F1000303934FF4FA6242
:108944004FF00003DDE9020117F07EFA02460B4600
:1089540013460022194620460DF032F81190B1E179
:108964000020FFF75BFD0346002B0DD00020FFF72E
:108974009DFD9DF83F30032B02D14FF4487301E075
:108984004FF47A6310930BE00020FFF775FD9DF818
:108994003F30032B01D1C82301E04FF4C873109377
:1089A400704A9DF83F3013706D4C109B0022049365
:1089B40005924FF000024FF00003DDE904673946E9
:1089C400CB03314643EA51433146CA0312F57A7167
:1089D400069143F1000307934FF4FA624FF000034A
:1089E400DDE9060117F030FA02460B461346002271
:1089F400194620460CF0E4FF119063E10020FFF7D4
:108A04000DFD0346002B06D00020FFF74FFD4FF469
:108A14007A63109305E00020FFF72EFD4FF4C8732E
:108A24001093504A9DF83F3013704D4C109B002218
:108A34009A4693464FF000024FF000034FEACB33BF
:108A440043EA5A434FEACA3212F57A71089143F164
:108A5400000309934FF4FA624FF00003DDE90801C3
:108A640017F0F2F902460B46134600221946204637
:108A74000CF0A6FF119025E10020FFF7CFFC034680
:108A8400002B0CD00020FFF711FD9DF83F30052B83
:108A940001D1C82301E04FF47A6310930BE0002066
:108AA400FFF7EAFC9DF83F30052B01D1C82301E014
:108AB4004FF4C87310932B4A9DF83F301370284C21
:108AC400109B0022984691464FF000024FF000039D
:108AD4004FEAC93343EA58434FEAC83212F57A7170
:108AE4000A9143F100030B934FF4FA624FF0000331
:108AF400DDE90A0117F0A8F902460B4613460022E5
:108B0400194620460CF05CFF1190DBE00020FFF7D3
:108B14000DFD144A9DF83F301370114B002240F2B2
:108B2400666118460CF04CFF1190CBE00020FFF773
:108B3400A3FC0C4A9DF83F301370C3E0074B01229D
:108B44001A700120FFF7F2FC054B002240F2666127
:108B540018460CF035FF1190B4E000BFA534002096
:108B640048230020A4340020594B01221A7001200C
:108B7400FFF7DCFC574B00224FF4005118460CF071
:108B84001FFF11909EE0524B01221A700120FFF743
:108B9400CDFC504B002240F2666118460CF010FFE9
:108BA40011908FE04A4B01221A700120FFF7BEFC9E
:108BB400484B00224FF4005118460CF001FF11906D
:108BC40080E0FFF7A0FC444A9DF83F30137079E041
:108BD400424B18460CF04CFF11909DF83F30C3F106
:108BE40011031093109B002B35D0119B002B32D115
:108BF400109B012B28D9394C109B9BB21A46C823D1
:108C040002FB03F3DA171E4617464FF000024FF03B
:108C14000003FB0343EA5643F20312F57A710C9105
:108C240043F100030D934FF4FA624FF00003DDE9C2
:108C34000C0117F009F902460B46134600221946A7
:108C440020460CF0BDFE11900220FFF715FC244BCA
:108C540001221A7036E00220FFF728FC204B002284
:108C64001A702FE0FFF7B8FD1B4A9DF83F301370D0
:108C740028E0FFF7B1FD0020FFF7FEFB164A9DF840
:108C84003F3013701EE0FFF7A7FD0120FFF7F4FB50
:108C9400114A9DF83F30137014E0FFF79DFD00204A
:108CA400FFF7EAFB0120FFF7E7FB0B4A9DF83F3093
:108CB400137007E0FFF727FC074A9DF83F30137055
:108CC40000E000BF119B184612B0BDE8D08F00BF72
:108CD400A534002048230020A43400206823002069
:108CE400AC34002000B583B00190074B1B6803F03F
:108CF4000103002B04D0054B1B781846FFF78AFDAF
:108D040000BF03B05DF804FBA8340020A4340020A5
:108D140000B583B001900220FFF708FC00BF03B048
:108D24005DF804FB00B585B0019000910023039326
:108D34002A4A019B13602A4A009B1360019B03F09B
:108D44000203002B2AD00023029308E00122012110
:108D5400029800F055F80390029B01330293029BA2
:108D6400002B02D1039B002BF0D0039B002B06D1D8
:108D740040F2333201211B480CF0B2F80390039BFC
:108D8400002B02D10CF034F90390039B002B05D186
:108D9400154A002115480CF0D9FD0390019B03F0FE
:108DA4000103002B14D00120FFF75DFC039B002B73
:108DB40005D10F4A00210F480CF0C8FD0390039B16
:108DC400002B05D10C4A01210C480CF0BFFD039087
:108DD400039B184605B05DF804FB00BFA8340020CF
:108DE400B0340020C40F0400C1870200C00F040087
:108DF400E98C0200B80F0400158D0200BC0F0400BA
:108E040084B001900B468DF8033013468DF8023080
:108E140000230393019B002B3CD19DF80230012BCE
:108E24000BD19DF80330012B04D1019BDBB20E332F
:108E3400DBB200E000238DF802309DF80330022BF2
:108E44000FD0022B23DC002B16D0012B1FD1144989
:108E5400019A13465B0013440B449DF802201A70D8
:108E64001AE00F49019A13465B0013440B44013383
:108E74009DF802201A700FE00949019A13465B001D
:108E840013440B4402339DF802201A7004E00723B4
:108E9400039301E007230393039B184604B0704730
:108EA400B434002000B587B00390029101920F4BB7
:108EB4001B68002B03D10E492F20FEF7F7FA019B04
:108EC40004331B6804AA0B49184617F061F8049B85
:108ED400DBB20E338DF81730044B1B689DF8172056
:108EE4001046984700BF07B05DF804FBBC3400206F
:108EF400CC0F0400FC0F040000B587B0039002916E
:108F040001920E4B1B68002B03D10D493920FEF74B
:108F1400CDFA019B04331B6804AA0A49184617F0CA
:108F240037F8049B8DF81730044B1B689DF8172005
:108F34001046984700BF07B05DF804FBBC3400201E
:108F4400CC0F0400FC0F0400BFF34F8F00BF064B8F
:108F5400DB6803F4E0620449044B1343CB60BFF3C2
:108F64004F8F00BF00BFFDE700ED00E00400FA05ED
:108F740082B0164B1B680193154B1B680093019B31
:108F8400082B1FD1009B052B1AD801A252F823F0FD
:108F9400AD8F0200B18F0200B58F0200B98F0200BD
:108FA400BD8F0200C18F020001230CE001230AE0FF
:108FB400012308E0012306E0012304E0012302E089
:108FC400012300E00023184602B07047300100106E
:108FD4003401001082B0164B1B680193154B1B68BB
:108FE4000093019B082B1FD1009B052B1AD801A2CB
:108FF40052F823F01190020015900200199002001B
:109004001D900200219002002590020001230CE033
:1090140001230AE0012308E0012306E0012304E020
:10902400012302E0012300E00023184602B0704748
:10903400300100103401001082B0164B1B680193FC
:10904400154B1B680093019B082B1FD1009B052B1C
:109054001AD801A252F823F0759002007990020008
:109064007D900200819002008590020089900200A8
:1090740001230CE000230AE0002308E0002306E0BB
:10908400002304E0002302E0002300E0002318464C
:1090940002B07047300100103401001082B0164B4A
:1090A4001B680193154B1B680093019B082B1FD170
:1090B400009B052B1AD801A252F823F0D990020084
:1090C400DD900200E1900200E5900200E9900200C8
:1090D400ED90020001230CE000230AE0002308E0E5
:1090E400002306E0002304E0002302E0002300E064
:1090F4000023184602B070473001001034010010FC
:1091040082B0164B1B680193154B1B680093019B9F
:10911400082B1FD1009B052B1AD801A252F823F06B
:109124003D910200419102004591020049910200E3
:109134004D9102005191020001230CE000230AE04A
:10914400002308E0002306E0002304E0002302E0FB
:10915400002300E00023184602B0704730010010DD
:109164003401001082B0164B1B680193154B1B6829
:109174000093019B082B1FD1009B052B1AD801A239
:1091840052F823F0A1910200A5910200A9910200D6
:10919400AD910200B1910200B591020001230CE0EF
:1091A40000230AE0002308E0002306E0002304E093
:1091B400002302E0002300E00023184602B07047B9
:1091C400300100103401001082B0164B1B6801936B
:1091D400154B1B680093019B082B1FD1009B052B8B
:1091E4001AD801A252F823F0059202000992020053
:1091F4000D920200119202001592020019920200CF
:1092040001230CE001230AE0012308E0012306E026
:10921400012304E0012302E0012300E000231846B7
:1092240002B07047300100103401001082B0164BB8
:109234001B680193154B1B680093019B082B1FD1DE
:10924400009B052B1AD801A252F823F06992020060
:109254006D920200719202007592020079920200EE
:109264007D92020000230CE000230AE0002308E0C2
:10927400002306E0012304E0012302E0012300E0CF
:109284000023184602B0704730010010340100106A
:1092940008B5FFF7CBFF0346002B07D04FF0102390
:1092A4004FF08042D3F80832C2F8583500BF08BDE9
:1092B40000BF044BD3F80034002BFAD000BF00BF2A
:1092C400704700BF00E0014000B583B00190054A3B
:1092D400019BC2F80435FFF7EBFF00BF03B05DF854
:1092E40004FB00BF00E00140024B034A1A6000BFC8
:1092F400704700BFA82300200090D00308B5FFF7F3
:1093040037FE0346002B0ED04FF080430022C3F8F3
:109314000C214FF080430022C3F810214FF080430A
:109324000022C3F83825FFF755FE0346002B76D0FC
:109334004FF08053734AD3F80434C2F820354FF009
:109344008053704AD3F80834C2F824354FF0805360
:109354006C4AD3F80C34C2F828354FF08053694A6C
:10936400D3F81034C2F82C354FF08053654AD3F843
:109374001434C2F830354FF08053624AD3F81834AD
:10938400C2F834354FF080535E4AD3F81C34C2F827
:1093940040354FF080535B4AD3F82034C2F844354B
:1093A4004FF08053574AD3F82434C2F848354FF06D
:1093B4008053544AD3F82834C2F84C354FF08053C4
:1093C400504AD3F82C34C2F850354FF080534D4AEC
:1093D400D3F83034C2F854354FF08053494AD3F8A7
:1093E4003434C2F860354FF08053464AD3F83834E9
:1093F400C2F864354FF08053424AD3F83C34C2F883
:1094040068354FF080533F4AD3F84034C2F86C3586
:109414004FF080533B4AD3F84434C2F87035FFF719
:109424000BFE0346002B02D0374B384A1A60FFF775
:1094340035FE0346002B03D0354BFB22C3F8182519
:10944400FFF75EFE0346002B0AD0324B1B6823F065
:109454000F02314B1B6803F00F032E4913430B60BB
:10946400FFF780FE0346002B03D02C4B4FF4007211
:109474001A60FFF7A9FE0346002B0DD04FF080437E
:10948400D3F8003403F00103002B05D04FF08043E0
:109494006FF00102C3F80024214BD3F88830204A2E
:1094A40043F47003C2F88830BFF34F8F00BFBFF39B
:1094B4006F8F00BFFFF7ECFE4FF01023D3F800329C
:1094C400002B05DB4FF01023D3F80432002B15DA00
:1094D4000120FFF7F9FE4FF010231222C3F80022F7
:1094E400FFF7E6FE4FF010231222C3F80422FFF721
:1094F400DFFE0020FFF7E8FEFFF726FDFFF7F4FE8E
:1095040000BF08BD00C000408C56004048810300E5
:1095140000F00040E40E0040580200104096024063
:1095240000ED00E06DDF704700BF184679DF70473B
:1095340000BF18467DDF704700BF184664DF7047E0
:1095440000BF184682B003460091ADF80630BDF85E
:109554000630DAB2009B1A70BDF806301B0A9AB2C4
:10956400009B0133D2B21A700223184602B070472E
:1095740000B589B0039002911346ADF80630029B02
:109584001B8803F10902BDF806309A4201D90C2365
:1095940053E004AB1846FFF7C5FF0790079B0693FB
:1095A400069B002B01D0069B47E0029B1B881A46B2
:1095B400039B134408221A70029B1B8801339AB23E
:1095C400029B1A80029B1B881A46039B13441B228E
:1095D4001A70029B1B8801339AB2029B1A80029B69
:1095E4001B881A46039B981804AB013306221946BC
:1095F40017F08AFA029B1B8806339AB2029B1A80E0
:109604009DF8103023F00103DBB2002B07D1029B3D
:109614001B881A46039B134400221A7006E0029B1F
:109624001B881A46039B134401221A70029B1B8851
:1096340001339AB2029B1A800023184609B05DF8E0
:1096440004FB00B589B0039002910192ADF8023099
:10965400039B1B78012B05D1039B5B78002B01D165
:10966400072391E0019B1B889A1CBDF802309A42A3
:109674000ED8039B1B78012B0CD1019B1B881A4627
:10968400039B5B7813449A1CBDF802309A4201D9BB
:109694000C2379E0019B1B88BDF80220D31A9BB2EE
:1096A400023BADF81C30BDF81C30ADF81230019B04
:1096B4001B880233029A13440DF112021146184614
:1096C400FFF738FF0690069B0593059B002B01D0FE
:1096D400059B59E0039B1B78022B06D0039B5B7808
:1096E4001A46BDF812309A4209D3BDF81230BDF8BB
:1096F4001C209A4203D309238DF81F3016E0082357
:109704008DF81F30039B1B78012B0BD1039B5B78D7
:109714001A46BDF81C30934204D3039B5B78ADF822
:10972400123003E0BDF81C30ADF81230BDF8123031
:10973400FE2B01D90C2327E0BDF81230DAB2019BCD
:109744001B881946029B0B440132D2B21A70019B4A
:109754001B8801339AB2019B1A80019B1B881A460D
:10976400029B13449DF81F201A70019B1B88013330
:109774009AB2019B1A80019B1A88BDF812301344D7
:109784009AB2019B1A800023184609B05DF804FBC5
:1097940000B589B0039002911346ADF80630029BE0
:1097A4001B881A1DBDF806309A4201D90C233AE0F1
:1097B4000DF116031846FFF7B9FE0790079B0693B1
:1097C400069B002B01D0069B2DE0029B1B881A46AA
:1097D400039B134403221A70029B1B8801339AB221
:1097E400029B1A80029B1B881A46039B134419226E
:1097F4001A70029B1B8801339AB2029B1A80BDF82F
:109804001620029B1B881946039B0B4419461046DD
:10981400FFF798FE03461A46029B1B8813449AB22C
:10982400029B1A800023184609B05DF804FB84B03B
:10983400029101921A4603468DF80F301346ADF893
:109844000C30019B1B88DA1CBDF80C309A4201D9FC
:109854000C2328E0019B1B881A46029B1344022216
:109864001A70019B1B8801339AB2019B1A80019BD9
:109874001B881A46029B134401221A70019B1B8801
:1098840001339AB2019B1A80019B1B881A46029BE2
:1098940013449DF80F201A70019B1B8801339AB260
:1098A400019B1A800023184604B0704784B00291CB
:1098B40001921A4603468DF80F301346ADF80C306A
:1098C400019B1B88DA1CBDF80C309A4201D90C2389
:1098D40028E0019B1B881A46029B134402221A703B
:1098E400019B1B8801339AB2019B1A80019B1B8840
:1098F4001A46029B13440A221A70019B1B880133E7
:109904009AB2019B1A80019B1B881A46029B13443E
:109914009DF80F201A70019B1B8801339AB2019B9A
:109924001A800023184604B0704700B58FB0039026
:1099340001930B468DF80B3013468DF80A30002343
:109944008DF83330109B1B88ADF8303000230D9315
:1099540070E0039B5A680D9B9B001A4405AB10688A
:1099640018600DF11B0105AB00221846FFF7E6FD58
:109974000A900A9B0993099B002B01D0099B7BE069
:109984009DF81B309DF80A209A4250D19DF833303F
:10999400002B01D0002300E002238DF82330109B1C
:1099A4001B881A469DF81B301A449DF823301A442C
:1099B400BDF844309A4201DD0C235DE09DF833305C
:1099C40083F00103DBB2002B16D0109B1B880133FC
:1099D4009AB2109B1A80109B1B881A46019B134451
:1099E4009DF80B201A70109B1B8801339AB2109BB0
:1099F4001A8001238DF83330109B1B881A46019B73
:109A04001A440DF11B0105AB1846FFF797FD0A90A8
:109A14000A9B0793079B002B01D0079B2CE0109B0C
:109A24001B889DF81B2013449AB2109B1A800D9B2F
:109A340001330D93039B1B881A460D9B934288DBCD
:109A44009DF83330002B16D0109B1A88BDF83030A7
:109A5400D31A9BB2013BADF82E30BDF82E30FF2B4C
:109A640001D90C2308E0BDF83030019A1344BDF845
:109A74002E20D2B21A70002318460FB05DF804FBF2
:109A840000B58BB0059003930B468DF81330134645
:109A94008DF812309DF81310BDF8343001930C9BEF
:109AA4000093039B02220598FFF73FFF0990099B4F
:109AB4000893089B002B01D0089B14E09DF812101A
:109AC400BDF8343001930C9B0093039B102205983E
:109AD400FFF72BFF0990099B0793079B002B01D0ED
:109AE400079B00E0002318460BB05DF804FB82B02E
:109AF4000190019B1B88052B0AD9019B1B88B3F598
:109B0400486F07D9019B1B884FF6FF72934201D01F
:109B1400072325E0019B5B88052B0AD9019B5B8801
:109B2400B3F5486F07D9019B5B884FF6FF729342E8
:109B340001D0072314E0019B1B884FF6FF72934268
:109B44000DD0019B5B884FF6FF72934207D0019BB7
:109B54001A88019B5B889A4201D9072300E00023FD
:109B6400184602B0704700B587B003900291019285
:109B7400ADF80230019B1B889A1DBDF802309A4251
:109B840001D90C234BE00398FFF7B1FF0590059B27
:109B94000493049B002B01D0049B40E0019B1B8891
:109BA4001A46029B134405221A70019B1B88013339
:109BB4009AB2019B1A80019B1B881A46029B13448C
:109BC40012221A70019B1B8801339AB2019B1A80DE
:109BD400039B1A88019B1B881946029B0B44194658
:109BE4001046FFF7AFFC03461A46019B1B8813443B
:109BF4009AB2019B1A80039B5A88019B1B881946C1
:109C0400029B0B4419461046FFF79CFC03461A4678
:109C1400019B1B8813449AB2019B1A8000231846A7
:109C240007B05DF804FB00B587B003900291019280
:109C3400ADF80230039B9B8802330593019B1B887C
:109C44001A46059B13449A1CBDF802309A4201D966
:109C54000C2353E0059BFE2B01D90C234EE0059BFE
:109C6400DAB2019B1B881946029B0B440132D2B223
:109C74001A70019B1B8801339AB2019B1A80019BC5
:109C84001B881A46029B1344FF221A70019B1B88EF
:109C940001339AB2019B1A80039B1A88019B1B888B
:109CA4001946029B0B4419461046FFF74BFC03462A
:109CB4001A46019B1B8813449AB2019B1A80039B8A
:109CC4009B88002B19D0039B9B68002B01D1072391
:109CD40014E0019B1B881A46029B9818039B996801
:109CE400039B9B881A4616F00FFF019B1A88039B5F
:109CF4009B8813449AB2019B1A800023184607B02C
:109D04005DF804FB00B589B0039002910192ADF8AF
:109D14000230039B9B6A002B01D1072371E00023CF
:109D24008DF81F3065E0039B996A9DF81F20134648
:109D34005B0013449B000B440693069B9B880233F1
:109D44000593059BFE2B01D90C235AE0059BDAB23F
:109D5400019B1B881946029B0B440132D2B21A7034
:109D6400019B1B8801339AB2019B1A80019B1B88BB
:109D74001A46029B134416221A70019B1B88013356
:109D84009AB2019B1A80069B1A88019B1B8819466C
:109D9400029B0B4419461046FFF7D4FB03461A46B0
:109DA400019B1B8813449AB2019B1A80069B9B88D3
:109DB400002B19D0069B9B68002B01D1072320E0C0
:109DC400019B1B881A46029B9818069B9968069B60
:109DD4009B881A4616F098FE019B1A88069B9B885E
:109DE40013449AB2019B1A809DF81F3001338DF8F9
:109DF4001F30039B93F82C309DF81F209A4292D376
:109E04000023184609B05DF804FB00B595B0059031
:109E14000491039200231393039B1B88ADF84A30EB
:109E2400039B00221A80059B93F82D30002B0ED043
:109E3400BDF84A301A4603990498FFF799FB13902A
:109E4400139B1193119B002B01D0119BD8E0059B10
:109E54009B78002B0ED0BDF84A301A46039904981B
:109E6400FFF796FC1390139B1093109B002B01D0CB
:109E7400109BC5E0059BDB78002B10D0059BDB789D
:109E840058B2BDF84A30039A0499FFF7D0FC1390F6
:109E9400139B0F930F9B002B01D00F9BB0E0059BEE
:109EA4005B68002B11D0059B5B6893F90000BDF83B
:109EB4004A30039A0499FFF7F9FC1390139B0E930D
:109EC4000E9B002B01D00E9B9AE0059B1B89002B57
:109ED40014D0059B03F10800BDF84A300193039B9D
:109EE4000093049B06220221FFF7CAFD1390139BE3
:109EF4000D930D9B002B01D00D9B81E0059B1B8ACC
:109F0400002B14D0059B03F11000BDF84A300193D7
:109F1400039B0093049B07220321FFF7B1FD1390D9
:109F2400139B0C930C9B002B01D00C9B68E0059BAE
:109F34001B8B002B14D0059B03F11800BDF84A308D
:109F44000193039B0093049B15221421FFF798FDB2
:109F54001390139B0B930B9B002B01D00B9B4FE097
:109F6400059B1B6A002B0FD0059B186ABDF84A306D
:109F7400039A0499FFF7F7FD1390139B0A930A9B26
:109F8400002B01D00A9B3BE0059B5B6A002B0FD0A2
:109F9400059B586ABDF84A30039A0499FFF743FEBB
:109FA4001390139B0993099B002B01D0099B27E075
:109FB400059B93F82C30002B0ED0BDF84A30039A41
:109FC40004990598FFF79EFE1390139B0893089B32
:109FD400002B01D0089B13E0059B1B78002B0ED0AF
:109FE400BDF84A30039A04990598FFF72AFB1390A9
:109FF400139B0793079B002B01D0079B00E0139B47
:10A00400184615B05DF804FB86B0039001921A4619
:10A014000B46ADF80A3013468DF80930039B002B2C
:10A0240002D0019B002B01D100235BE00023ADF89B
:10A0340016300CE0BDF81630039A13441B781A4608
:10A04400BDF8163013449BB20133ADF81630BDF899
:10A0540016305A1CBDF80A309A420FDA019B1B884D
:10A06400BDF816209A42E5D3BDF816300133039AA1
:10A0740013441B789DF809209A42DBD1BDF81620C1
:10A08400BDF80A309A4201D300232BE0BDF8163004
:10A094000233ADF81430BDF81630039A13441B781C
:10A0A400002B07D0BDF81630039A13441B78013BEC
:10A0B4009BB200E00023ADF81230BDF81230002B43
:10A0C40008D0BDF81420BDF812301A44BDF80A3087
:10A0D4009A4201DD002305E0019BBDF814201A809B
:10A0E400BDF81230184606B0704700B585B001902F
:10A0F4000B46ADF8023013468DF801300023ADF85D
:10A104000C309DF8013003AABDF802100198FFF746
:10A114007BFF0346ADF80E30BDF80E30002B01D1A5
:10A12400002304E0BDF80C301A46019B1344184682
:10A1340005B05DF804FB75DF704700BF184676DF95
:10A14400704700BF18467ADF704700BF18467BDFB0
:10A15400704700BF1846000084B00346ADF80630CF
:10A164000023039316E00F49039A13469B001344FC
:10A174009B000B441B88BDF806209A4207D1039A22
:10A1840013469B0013449B00064A134406E0039BBA
:10A1940001330393039B002BE5D00023184604B03E
:10A1A400704700BFE034002082B001900B46ADF848
:10A1B4000230019BBDF802201A80019B00221A7212
:10A1C400019B054903F10A020B4603CB1060516061
:10A1D40000BF02B0704700BF1035002082B001906C
:10A1E400019B4FF6FF721A8000BF02B0704788B01F
:10A1F4000390029111461A460B46ADF806301346F9
:10A20400ADF80430039B9B881A46BDF8063013440E
:10A214000793039B9B881946039B9B88BDF80620E4
:10A22400934228BF13469BB2CB1A0693039BDB8849
:10A234001A46BDF8043013440593039BDB88194682
:10A24400039BDB88BDF80420934228BF13469BB2CE
:10A25400CB1A0493029B5A88039B1B889A4205D30A
:10A26400029B5A88039B5B889A4201D900231CE015
:10A27400029B9B881A46069B934205D8029B9B88A7
:10A284001A46079B934201D200230EE0029BDB880F
:10A294001A46049B934205D8029BDB881A46059B09
:10A2A400934201D2002300E00123184608B070470E
:10A2B40000B583B00190064B9B69002B03D0044B7F
:10A2C4009B690198984700BF03B05DF804FB00BF89
:10A2D400F434002000B585B003460091ADF8063093
:10A2E400BDF8063000991846FFF725FF0390039B3D
:10A2F400002B05D0039B112B02D00398FFF7D8FF46
:10A30400039B002B0CBF01230023DBB2184605B0CE
:10A314005DF804FB00B589B00190019B0793079B8E
:10A324009BB21846FFF718FF0690069B002B42D0FD
:10A33400069B1A7A224B1B7B9A4215D2079B9AB230
:10A34400069B0A3319461046FFF7C4FF03468DF8EF
:10A3540013309DF81330002B2DD0069B1B7A01334C
:10A36400DAB2069B1A7226E0069B00221A72144B7C
:10A374001B7C002B0FD0079B9BB23B211846FFF799
:10A38400DEFE0590059B002B05D0059B082B02D013
:10A394000598FFF78DFF0A4B5B69002B0BD0002358
:10A3A4008DF80C30079B9BB2ADF80E30044B5B6903
:10A3B40003AA1046984700BF09B05DF804FB00BF2C
:10A3C400F434002030B587B00190019B002B01D1FB
:10A3D4000E2353E02B4A019B14461D460FCD0FC498
:10A3E40095E8070084E80700264B274A1A60019B7A
:10A3F4001B68002B11D0019B1B681846FFF7A3FEB6
:10A404000490049B002B01D0049B37E0019B1A6845
:10A414001D4B1068516803C308E01B48FFF797FE03
:10A424000490049B002B01D0049B27E00023059398
:10A4340020E0059A13469B0013449B00134A1344DF
:10A4440003930398FFF7CAFE059B5B01104A1A4465
:10A45400039B5A60039B04330E4A002118460BF0F9
:10A4640075FA0490049B002B01D0032306E0059B9E
:10A4740001330593059B002BDBD00023184607B05E
:10A4840030BD00BFF434002010350020E03400203B
:10A49400C034002019A3020000B587B00346009120
:10A4A400ADF80630009B5B7A002B1AD1009B1B7A17
:10A4B400002B03D1164B5B68059302E0144B9B6899
:10A4C4000593009B5B68BDF80620059918460BF0C0
:10A4D40077FA0490049B002B16D00498FFF7E8FE4B
:10A4E40012E0009B00221A72094B5B69002B0BD00F
:10A4F40001238DF80C30BDF80630ADF80E30044B56
:10A504005B6903AA1046984700BF07B05DF804FBD7
:10A51400F434002000B585B00190019BDB7B8DF8FD
:10A524000F30019B9B88ADF80C309DF80F30012B48
:10A534002CD14FF6FF70FFF70FFE0290029B002B09
:10A5440003D10420FFF7B4FE21E0BDF80C30194616
:10A554000298FFF729FE029B03F10A00019B03F115
:10A5640010014FF6FF7340F2F312FFF740FE03466B
:10A574001A46029B5A72074BDB89002B07D1BDF8A0
:10A584000C3002991846FFF787FF00E000BF05B0C2
:10A594005DF804FBF434002000B587B00190019B02
:10A5A4009B88ADF81630BDF816301846FFF7D4FD79
:10A5B4000490049B002B0ED0049B5B6818460BF0A0
:10A5C40057FA0390039B002B02D00398FFF770FE09
:10A5D4000498FFF703FE00BF07B05DF804FB00001A
:10A5E40000B587B00190019B06330593059B1A883B
:10A5F400194BDB899A422BD1059B5B89022B27D10E
:10A60400019B9B88ADF81230BDF812301846FFF755
:10A61400A3FD0390039B002B1AD0059B0C33184613
:10A6240000F0FFF90346002B06D0BDF81230039961
:10A634001846FFF731FF0BE0039B5B6818460BF0ED
:10A6440017FA0290029B002B02D00298FFF730FE0B
:10A6540000BF07B05DF804FBF434002000B585B0FA
:10A664000190019B9B88ADF80E30BDF80E30184662
:10A67400FFF772FD0290029B002B15D0029B03F1A1
:10A684000A00019B03F108014FF6FF7340F2F31235
:10A69400FFF7ADFD03461A46029B5A72BDF80E3011
:10A6A40002991846FFF7F8FE00BF05B05DF804FBF9
:10A6B40000B583B001900091019B1B88502B12D0F0
:10A6C400502B18DC122B12D0122B14DC102B02D0BE
:10A6D400112B04D00FE00198FFF71CFF0CE0019848
:10A6E400FFF75AFF08E00198FFF77AFF04E00198AA
:10A6F400FFF7B4FF00E000BF00BF03B05DF804FB48
:10A7040030B58FB00190009100230293009B002B81
:10A714001AD000230D9314E06B460D9918460CF0E3
:10A724005CF80346002B09D0029B5A1C02920D9A36
:10A7340092B25B0038336B4423F82C2C0D9B01330D
:10A744000D930D9B132BE7D9019B1D4602AC0FCC37
:10A754000FC50FCC0FC594E8070085E807000198E2
:10A764000FB030BD00B583B00346ADF80630BDF878
:10A774000630132B01D900230CE0BDF8063019462E
:10A7840006480BF0F9FFBDF80630194604480BF0F3
:10A79400F3FF0123184603B05DF804FB20350020C5
:10A7A4001C35002000B585B00346ADF80630002303
:10A7B40003930DE0039B9B00094A13440433BDF843
:10A7C4000620114618460BF0EFFF039B0133039359
:10A7D400039B1D2BEED900BF00BF05B05DF804FB41
:10A7E4001835002000B583B00346ADF80630BDF837
:10A7F4000630194603480BF0D7FF00BF03B05DF8DD
:10A8040004FB00BF2035002030B59BB0184B9B687B
:10A81400DB431893164B5A6818AB114618460CF0D4
:10A8240053F8189A6B4611461846FFF769FF0DACAA
:10A834006D460FCD0FC40FCD0FC495E8070084E813
:10A844000700002319930BE0199B5B0068336B44EA
:10A8540033F8303C1846FFF7A5FF199B01331993D1
:10A864000D9B199A9A42EFD300BF00BF1BB030BDB5
:10A874001835002000B583B001900B46ADF80230C6
:10A8840013468DF801309DF80130002B06D0BDF839
:10A894000230194601980BF06FFF05E0BDF8023055
:10A8A400194601980BF080FF00BF03B05DF804FB6C
:10A8B40000B585B001900091019B9B88ADF80E30E6
:10A8C400019B1B88103B0A2B00F2888001A252F8DE
:10A8D40023F000BF05A9020041A90200E1A902007A
:10A8E400E1A90200E1A90200E1A90200E1A9020034
:10A8F400E1A90200E1A90200ABA902004DA90200EE
:10A90400FFF782FFBDF80E301846FFF72BFF034612
:10A9140083F00103DBB2002B05D0324AF02104207E
:10A924000AF026FC57E0019BDB7B022B53D1BDF8D8
:10A934000E3019462C480BF01FFF4CE0BDF80E30CA
:10A944001846FFF74FFF49E0019B1B7AC3F303133B
:10A95400DBB28DF80D309DF80D30032B8CBF012335
:10A964000023DAB2BDF80E3019462048FFF782FF03
:10A974009DF80D30022B8CBF01230023DAB2BDF801
:10A984000E3019461A48FFF775FF9DF80D30012B5C
:10A994008CBF01230023DAB2BDF80E3019461548E6
:10A9A400FFF768FF1AE0019B1B7A002B15D1019B6E
:10A9B4005B7AC3F3C003DBB2002B14BF0123002373
:10A9C4008DF80C309DF80C20BDF80E301946074860
:10A9D400FFF750FF01E000BF00E000BF00BF05B07B
:10A9E4005DF804FB7C100400243500203035002081
:10A9F4002C3500202835002082B00190019B1B7863
:10AA04001AB2019B01331B781BB21B021BB2134306
:10AA14001BB29BB2184602B07047AADF704700BF52
:10AA2400184600B585B001900198FFF7E5FF03468D
:10AA3400ADF80E30BDF80E3003F00103002B14BF47
:10AA440001230023DBB2184605B05DF804FB00B512
:10AA540085B001900198FFF7CFFF0346ADF80E30A3
:10AA6400BDF80E3003F00203002B14BF01230023B2
:10AA7400DBB2184605B05DF804FB000082B0034663
:10AA840000918DF80730009A137823F00F031370A8
:10AA9400009A137823F0F00313709DF80730052B08
:10AAA4005BD801A252F823F0C5AA0200DBAA020077
:10AAB400F5AA02000FAB020029AB020043AB02006F
:10AAC400009A137823F00F031370009A137823F07D
:10AAD400F003137040E0009A1378012161F303033B
:10AAE4001370009A1378012161F30713137033E094
:10AAF400009A1378012161F303031370009A137809
:10AB0400022161F30713137026E0009A13780121E0
:10AB140061F303031370009A1378032161F307139D
:10AB2400137019E0009A1378022161F30303137080
:10AB3400009A1378012161F3071313700CE0009A53
:10AB44001378022161F303031370009A137802212E
:10AB540061F30713137000BF00BF00BF02B070475A
:10AB640000B595B0034602910192ADF80E30029BF8
:10AB74009B78002B03D101238DF81E3003E0029B48
:10AB84009B788DF81E30029B1B88ADF81C3006ABF9
:10AB940003220021184615F0E9FF029B5B7C06AAFC
:10ABA40011461846FFF76AFF029B9A7C06AB0133F5
:10ABB40019461046FFF762FF029BDA7B9DF81A30B4
:10ABC40062F3C3038DF81A30029B1A7C9DF81A3085
:10ABD40062F304138DF81A30029B1A7B9DF81A3025
:10ABE40062F300038DF81A30029B1B7D002B01D009
:10ABF400022200E001229DF81A3062F342038DF82C
:10AC04001A300DAB1C220021184615F0AFFF029B31
:10AC14005B7B03F01003DBB2002B06D1029B5B7B52
:10AC240003F02003DBB2002B24D004AB0322002169
:10AC3400184615F09BFF029BDA7C04AB01331946DE
:10AC44001046FFF71BFF9DF81030012262F3030347
:10AC54008DF810309DF81030012262F307138DF83F
:10AC640010309DF81230012262F342038DF8123045
:10AC740004AB1293029B5B7B8DF83430029B9B7B6D
:10AC84008DF8353008AB14220021184615F06EFFFC
:10AC940007AB089306AB0993029B9B88ADF82C3055
:10ACA400029B9B68002B06D0029BDB88ADF8283002
:10ACB400029B9B680C93029B9B69002B4FD005ABB6
:10ACC40003220021184615F051FF029B9B691B8843
:10ACD400ADF83C30029B9B695B88ADF83E30029B2B
:10ACE4009B695B680E9305AB1193029B9B691B7B6D
:10ACF40005AA11461846FFF7C1FE029B9B695A7BC1
:10AD040005AB013319461046FFF7B8FE029B9B6959
:10AD14009A7A9DF8163062F3C3038DF81630029BBD
:10AD24009B69DA7A9DF8163062F304138DF81630B5
:10AD3400029B9B691A7A9DF8163062F300038DF822
:10AD44001630029B9B699B7B002B01D0022200E002
:10AD540001229DF8163062F342038DF81630029BEF
:10AD6400DB69002B02D0029BDB69109308AA0DA9B2
:10AD7400BDF80E00019BFFF750FE0346184615B0C0
:10AD84005DF804FB90DF704700BF1846A5DF7047ED
:10AD940000BF1846B5DF704700BF184682B0019067
:10ADA400019B17221A80019B17225A80019B0022C3
:10ADB4001A71019B00225A71019B1B229A71019BFB
:10ADC4001B22DA7100BF02B07047000030B589B0B1
:10ADD40003460A46ADF806301346ADF80430BDF814
:10ADE4000430ADF81430BDF80430ADF8163000234B
:10ADF400ADF818300023ADF81A3003AB00221A6006
:10AE04009A8003AA05A9BDF806301846FFF7BAFFD1
:10AE14000790079B002B39D01E4A1F4BD31ADB081F
:10AE24001B0443F00104BDF8065007980CF01AFE09
:10AE340003462A461949204613F0BFFEBDF80C30DC
:10AE4400002B03D1BDF80E30002B0ED0114A124B4B
:10AE5400D31ADB081B0443F00100BDF80C301A467A
:10AE6400BDF80E300E4913F0A8FEBDF81030002BCB
:10AE74000CD0084A084BD31ADB081B0443F0010327
:10AE8400BDF810200749184613F086FE079B1846A4
:10AE940009B030BD1C0D0400A40C0400C010040053
:10AEA4000C1104004C11040010B586B001900091FF
:10AEB400009B9B88ADF80E30BDF80E30DB00019A84
:10AEC400134406330593019B1A79059B9A71009BE1
:10AED400DB7B012B02D0022B05D009E0019B1A88F1
:10AEE400059B1A8004E0019B5A88059B1A8000BFC9
:10AEF400059B1A88059B5B889A4226D9059B1A886C
:10AF0400BDF80E3011461846FFF740FF0490049B2D
:10AF1400002B03D1059B01225A7116E0049B112BCF
:10AF240003D1059B01221A710FE0114A114BD31A68
:10AF3400DB081B0443F0010404980CF093FD034662
:10AF44001A460D49204613F027FE059B9A79059B66
:10AF5400DB799A4208D9059B9B791A46BDF80E30D5
:10AF640011461846FFF732FF00BF06B010BD00BF00
:10AF74001C0D0400A40C0400A411040000B583B04B
:10AF840001900091009B9B88DB00019A13440633D7
:10AF94001846FFF703FF00BF03B05DF804FB00B5DC
:10AFA40087B001900091009B9B88ADF81630009B00
:10AFB4005B89ADF81430BDF81630DB00019A1344F8
:10AFC40006330493049B1B88BDF81420934228BFC6
:10AFD40013469AB2049B5A80049B5B88172B38BF94
:10AFE40017239AB2049B5A80019B1B69002B15D02E
:10AFF400049B5B79002B11D040F67723ADF8083021
:10B00400BDF81630ADF80A30049B5B88ADF80C30FF
:10B01400019B1B6902AA114601989847049B0022D0
:10B024005A71049B00221A7100BF07B05DF804FB3B
:10B0340010B588B001900091009B9B88ADF81A3040
:10B04400009BDB88ADF81830BDF81A30DB00019A9C
:10B05400134406330593BDF81830172B38BF172354
:10B06400ADF81830059B1B88BDF81820934228BF03
:10B0740013469AB2059B5A80059B00221A71059BC0
:10B084001A88BDF81A3011461846FFF783FE079058
:10B09400079B002B0FD0174A174BD31ADB081B044E
:10B0A40043F0010407980CF0DDFC03461A461349EB
:10B0B400204613F071FD059B5B79002B16D1019B93
:10B0C4001B69002B13D040F67723ADF80C30BDF884
:10B0D4001A30ADF80E30059B5B88ADF81030019B3B
:10B0E4001B6903AA11460198984700E000BF08B005
:10B0F40010BD00BF1C0D0400A40C0400D8110400F2
:10B1040030B591B001900091009B04AC1D1D0FCD92
:10B114000FC40FCD0FC495E8070084E80700BDF8FD
:10B124001030ADF83E30BDF81420BDF83E30D1B239
:10B13400019ADB0013440A465A73019B1B69002BD6
:10B1440019D002AB00221A609A804DF67A23ADF82A
:10B154000830BDF83E30ADF80A30BDF83E30019AF3
:10B16400DB0013445B7B8DF80C30019B1B6902AA46
:10B1740011460198984700BF11B030BD00B587B0A3
:10B1840001900091009B04330593059B1B88DB0011
:10B19400019A134406330493059B9B888DF80F3062
:10B1A400049B9B799DF80F20934228BF13468DF88A
:10B1B4000E30059B1B889DF80E2092B2114618464E
:10B1C400FFF704FE00BF07B05DF804FB00B585B0CF
:10B1D40001900091019B002B01D10E231DE0019BE6
:10B1E400009A1A61019B17221A80019B17225A8028
:10B1F400019B1B221A71002303930AE0039BDB00CB
:10B20400019A134406331846FFF7C8FD039B013324
:10B214000393039B002BF1D00023184605B05DF87F
:10B2240004FB000010B586B001900091009B0593CB
:10B23400019B9B88ADF81230BDF81230002B40F012
:10B244009880019B1B88552B48D0552B55DC242B0B
:10B2540032DC102B51DB103B142B4ED801A252F8D8
:10B2640023F000BFC3B20200CDB20200FFB202005D
:10B27400FFB20200FFB20200FFB20200FFB20200FE
:10B28400FFB20200FFB20200FFB20200FFB20200EE
:10B29400FFB20200FFB20200FFB20200FFB20200DE
:10B2A400FFB20200FFB20200FFB20200FFB20200CE
:10B2B400F5B20200EBB202003A2B0AD01DE001996C
:10B2C4000598FFF7F1FD19E001990598FFF756FE7F
:10B2D40014E001990598FFF762FE0FE001990598C3
:10B2E400FFF7A6FE0AE001990598FFF709FF05E0BC
:10B2F40001990598FFF742FF00E000BFBDF8123046
:10B30400059ADB0013449B7A002B33D0BDF812302E
:10B31400059ADB001344DA88BDF81230114618464A
:10B32400FFF734FD0390039B002B0ED1BDF81230C0
:10B33400059ADB00134400229A72BDF81230059A74
:10B34400DB0013440122DA7214E0039B112B11D0A9
:10B35400094A0A4BD31ADB081B0443F0010403987F
:10B364000CF080FB03461A460549204613F014FCF2
:10B3740000E000BF06B010BD1C0D0400A40C0400C6
:10B38400A4110400B0DF704700BF184666DF7047A1
:10B3940000BF184682B001900091019B002B01D19F
:10B3A4000E2316E0009B002B01D10E2311E0019B1C
:10B3B4001B78DE2B01D108230BE0009B1A68019B4C
:10B3C4005A60019BDE221A70019B4FF6FF725A806D
:10B3D4000023184602B0704782B001900B46ADF8C6
:10B3E4000230019B002B01D10E230AE0019B1B7844
:10B3F400DE2B01D0082304E0019BBDF802205A8013
:10B404000023184602B0704700B585B00190019B37
:10B414001B7A002B18D0019B5B8800211846FFF78C
:10B42400B5FF0390039B002B03D1019B00221A72EA
:10B434000AE0039B112B03D1019B01221A7203E042
:10B44400019B5B680398984700BF05B05DF804FB57
:10B4540000B583B001900091009B1B79012B0BD1A7
:10B46400009B1A88019B5B889A4205D1019B0122AB
:10B474001A720198FFF7C8FF00BF03B05DF804FB20
:10B4840082B00190009100BF02B0704700B589B04E
:10B4940001900091009B1A88019B5B889A4236D1E7
:10B4A400009B02330793079B1B78022B31D1079B28
:10B4B4001B7A042B07D0079B1B7A062B03D0079B10
:10B4C4001B7A052B27D102AB00221A605A609A60BE
:10B4D400DA6002238DF808304FF4C073ADF80C30F5
:10B4E400079B1B7A052B02D10023ADF80C30009B7F
:10B4F4001B8802AA11461846FFF744FF0690069BD4
:10B50400002B09D0019B5B680698984704E000BFB4
:10B5140002E000BF00E000BF09B05DF804FB00B525
:10B5240085B001900091009B002B43D0019B002B20
:10B5340040D0009B0393039B1B78DE2B3AD1019BE5
:10B544009A88039B5B889A4202D10398FFF75CFFB9
:10B55400019B1B88512B18D0512B28DC112B1BD09D
:10B56400112B24DC012B02D0022B07D01FE0019BFE
:10B57400043319460398FFF76BFF1BE0019B043368
:10B5840019460398FFF77CFF14E0019B0433194626
:10B594000398FFF77BFF0DE0019B9A88039B5B8870
:10B5A4009A4206D1039B4FF6FF725A8001E000BF16
:10B5B40000E000BF05B05DF804FB9BDF704700BFEF
:10B5C40018469DDF704700BF18469EDF704700BFD6
:10B5D4001846A1DF704700BF1846A3DF704700BFBD
:10B5E4001846AEDF704700BF184600B585B001901D
:10B5F4000091009B10330393039BDB88102B01D92C
:10B60400092319E0039BDB88194601980BF0E1FE3E
:10B614000246009B5A60009B5B68002B01D1042307
:10B624000AE0009B5868039B9968039BDB881A46D1
:10B6340000230CF01BF80023184605B05DF804FB4A
:10B6440000B585B001900091009B10330393039BD8
:10B654009B681B88102B01D9092324E0039B9B685A
:10B664001B880233194601980BF0B3FE0246009B77
:10B674005A60009B5B68002B01D1042313E0009BFC
:10B684005868039B9968002302220BF0EFFF009B8C
:10B694005868039BD968039B9B681B881A4602233E
:10B6A4000BF0E4FF0023184605B05DF804FB00002E
:10B6B40000B587B005900B460392ADF81230039B9A
:10B6C400002B1ED0114A124BD31ADB081B0443F083
:10B6D4000100059B1B781946BDF81220039B0093BB
:10B6E40013460A460B4913F07CFA059B9B68002B12
:10B6F40007D0059B9B68059AD168BDF81220039872
:10B70400984700BF07B05DF804FB00BF240D040098
:10B71400A40C04001412040000B597B001900B4669
:10B72400ADF802300CAB01221946019810F070FC00
:10B734001590159B002B40F0AC809DF83030052B04
:10B744007ED801A252F823F065B702007BB702004D
:10B75400A5B70200BDB70200D3B70200E9B70200E3
:10B76400BDF84010BDF84220BDF802301846FFF77E
:10B7740030FF159071E008AB12930D981299BDF843
:10B7840046301A4600230BF08FFF0CAB03F1100276
:10B79400BDF8023011461846FFF71FFF15905CE014
:10B7A400BDF840100CAB03F11202BDF8023018468C
:10B7B400FFF703FF159050E00CAB03F11002BDF846
:10B7C400023011461846FFF7FCFE159045E00CAB1D
:10B7D40003F11002BDF8023011461846FFF7F5FEDA
:10B7E40015903AE004AB13930D980DF10E0100236C
:10B7F40002220BF059FF0DF10E0312930D981399C9
:10B80400129B1B881A4602230BF04EFFBDF80E3024
:10B81400ADF852300CAB03F11002BDF80230114602
:10B824001846FFF7DEFE1590159B002B14D1BDF8CA
:10B834000E30BDF852209A420ED00C2315930BE023
:10B84400164A174BD31ADB081B0443F002031549AD
:10B85400184613F093F900E000BF159B112B18D084
:10B864009DF830301A46104B53F82230002B03D089
:10B874000D9B18460BF004FE0CAB002219460198F0
:10B8840010F0C6FBBDF802100CAB159A1846FFF772
:10B894000FFF00BF17B05DF804FB00BF240D0400C8
:10B8A400A40C0400601204007C12040000B58FB0E4
:10B8B4000190019BDB680DF12E010022184610F067
:10B8C400A7FB0D9031E0019B9A68BDF82E30194614
:10B8D4000B469B000B449B0013440C9303AB0022C8
:10B8E40019460C9810F094FB0D9012E09DF80C3062
:10B8F4001A46124B53F82230002B03D0049B1846EF
:10B904000BF0BEFD03AB002219460C9810F080FB2F
:10B914000D900D9B002BE9D0019BDB680DF12E01EE
:10B924000022184610F074FB0D900D9B002BCAD01A
:10B9340000BF00BF0FB05DF804FB00BF7C12040021
:10B9440000B585B001900B46ADF802300023039397
:10B95400019B1B78052B63D801A252F823F000BF8A
:10B964007DB9020093B90200A9B90200C1B902006D
:10B97400D7B90200EDB90200019B198A019B5A8ACA
:10B98400BDF802301846FFF724FE039055E0019BF2
:10B9940003F11002BDF8023011461846FFF71DFEF0
:10B9A40003904AE0019B198A019B03F11202BDF83E
:10B9B40002301846FFF701FE03903EE0019B03F1BD
:10B9C4001002BDF8023011461846FFF7FAFD039045
:10B9D40033E0019B03F11002BDF802301146184612
:10B9E400FFF7F3FD039028E0019B9B691B88ADF8EA
:10B9F4000A30019B03F11002BDF8023011461846CB
:10BA0400FFF7EFFD0390039B002B15D1019B9B696E
:10BA14001B88BDF80A209A420ED00C2303930BE036
:10BA24000E4A0F4BD31ADB081B0443F002030D49E3
:10BA3400184613F0A3F800E000BF039B112B01D1BB
:10BA4400002307E0BDF80230039A19460198FFF776
:10BA54002FFE0123184605B05DF804FB240D0400F5
:10BA6400A40C04006012040084B001900B46ADF8ED
:10BA740002300023ADF80E3012E0019B5A68BDF885
:10BA84000E305B0013441B88BDF802209A4202D199
:10BA9400BDF80E300CE0BDF80E300133ADF80E30B9
:10BAA400019B1B88BDF80E209A42E6D3BDF80E30E8
:10BAB400184604B0704784B001900B46ADF80230CC
:10BAC4000023ADF80E301AE0019B5A68BDF80E3021
:10BAD4005B0013441B884FF6FF7293420AD1019B0B
:10BAE4005A68BDF80E305B001344BDF802201A807A
:10BAF40000230BE0BDF80E300133ADF80E30019B8E
:10BB04001B88BDF80E209A42DED30423184604B0E5
:10BB1400704784B001900023ADF80E3011E0019B12
:10BB24005A68BDF80E305B0013441B884FF6FF7251
:10BB3400934201D001230BE0BDF80E300133ADF880
:10BB44000E30019B1B88BDF80E209A42E7D30023D8
:10BB5400184604B07047000000B589B00390029104
:10BB64001346ADF8063000230693039B002B01D146
:10BB74000E2389E0029B002B01D10E2384E003985D
:10BB8400FFF794FEBDF8063019460398FFF76CFFE3
:10BB94000346ADF81E30029B1B78052B05D8039B8A
:10BBA4001B88BDF81E209A4201D107236CE0039B39
:10BBB4009968BDF81E2013469B0013449B000B4458
:10BBC400184610F0BFFA0346002B0ED0BDF806301D
:10BBD40019460298FFF7B4FE03468DF817309DF816
:10BBE4001730002B01D0069B4EE0029B1B781A46AF
:10BBF400274B53F82230002B18D0039B1B69002BD2
:10BC040001D10E2340E0029B1B781A46204B53F8C7
:10BC14002230039A12690299104698470690069BAF
:10BC24000493049B002B01D0049B2DE0039B996893
:10BC3400BDF81E2013469B0013449B000B4402993D
:10BC4400184610F02DF90690069B002B0CD0029B91
:10BC54001B781A460E4B53F82230002B04D0029B5B
:10BC64005B6818460BF00CFC039B9968BDF81E201A
:10BC740013469B0013449B000B44BDF80620114659
:10BC84001846FFF749FD069B184609B05DF804FB0A
:10BC94007C12040000B587B001900B46ADF8023069
:10BCA40000230593019B002B01D10E232FE0019863
:10BCB400FFF7FCFDBDF8023019460198FFF7D4FEEA
:10BCC4000346ADF81230019B1B88BDF812209A423E
:10BCD4001CD10198FFF71DFF034683F00103DBB27B
:10BCE400002B05D0019B1B6918460BF067FB0590E0
:10BCF400BDF8023019460198FFF7DDFE0590059B5B
:10BD04000393039B002B01D0039B00E0059B184683
:10BD140007B05DF804FB00B587B001900091009B6B
:10BD24000493019B002B5AD0049B002B57D0019BFA
:10BD34001B88112B04D1019B9B88ADF8163018E0A9
:10BD4400019B1B882F2B08D9019B1B884F2B04D8E0
:10BD5400019B9B88ADF816300BE0019B1B884F2B91
:10BD64003FD9019B1B886F2B3BD8019B9B88ADF867
:10BD74001630BDF8163019460498FFF775FE0346D1
:10BD8400ADF80E30049B1A88BDF80E309A422AD0C2
:10BD9400019B1B88112B11D1049B5A68BDF80E30EE
:10BDA4005B0013444FF6FF721A80049BDB680DF1AD
:10BDB4000E021146184610F073F815E0049B9A68B9
:10BDC400BDF80E3019460B469B000B449B001344F0
:10BDD400BDF8162011461846FFF79EFC04E000BF8C
:10BDE40002E000BF00E000BF07B05DF804FB72DFB3
:10BDF400704700BF184673DF704700BF184682B013
:10BE04000190019B93F83034184602B0704784B017
:10BE14000190002303930AE0019A039B13441B78C7
:10BE2400002B01D0012306E0039B01330393039B02
:10BE3400052BF1D90023184604B0704782B003469D
:10BE44008DF807309DF807305A1C074B83FB02130B
:10BE54005910D317C91A0B469B000B44D11ACBB205
:10BE6400184602B0704700BF6766666682B00190EC
:10BE74000091009BDB7B012B04D1009B9A88019BE2
:10BE8400A3F8242400BF02B0704700B585B0019028
:10BE94000091019B002283F82E24009B9A88019B29
:10BEA400B3F824349A4216D1019B1B7983F0010321
:10BEB400DBB2002B0FD00121019800F0B3F90390FD
:10BEC400039B002B07D0019B9B6B002B03D0019B92
:10BED4009B6B0398984700BF05B05DF804FB00B561
:10BEE40085B001900091009B1B88262B1ED1009BDE
:10BEF4001B7A012B03D0009B1B7A022B17D1019BC9
:10BF04009B781846FFF79AFF03461946019800F0FC
:10BF140089F90390039B002B09D0019B9B6B002B99
:10BF240005D0019B9B6B0398984700E000BF05B0C8
:10BF34005DF804FB00B585B001900B468DF8033025
:10BF4400019B03F227431846FFF761FF03468DF870
:10BF54000F309DF80330013B032B33D801A252F874
:10BF640023F000BF79BF02009DBF0200B1BF0200F1
:10BF7400BDBF0200019B9B79002B0DD0019B93F860
:10BF8400243083F00103DBB2002B05D09DF80F3081
:10BF9400002B01D0012316E0019BDB79002B05D097
:10BFA4009DF80F30002B01D002230CE0019B1B7A7B
:10BFB400002B01D0032306E0019B5B7A002B01D008
:10BFC400042300E00023184605B05DF804FB00BF1D
:10BFD40082B001900091019B012283F83120019BE2
:10BFE4000022C3F82024019B03F22642009B5A60DE
:10BFF400009B00229A60009B02221A70009B802200
:10C004009A810023184602B0704782B001900091D3
:10C01400019B022283F83120019B93F82430002BEA
:10C0240003D0009B07221A7002E0009B03221A70BF
:10C03400019B1B699AB2009B9A81019B0022C3F861
:10C044002024019B03F22642009B5A60019BDA687C
:10C05400009B9A600023184602B0704700B583B075
:10C064000190019B5B79002B0FD0019B93F82E3438
:10C0740083F00103DBB2002B07D00198FFF7BFFE6A
:10C084000346002B01D0012300E0002303F0010349
:10C09400DBB2184603B05DF804FB00B585B001902F
:10C0A4000B468DF80330019BD3F81004019BB3F8C1
:10C0B400143401221946FEF718F80390039B002B51
:10C0C40003D0039B9DF803201A70019B03F15400D5
:10C0D400019B03F58261019B3C331A46FFF787FEFF
:10C0E4000346184605B05DF804FB00B585B0019021
:10C0F4000091019B5A69009B9A60019B9B699AB2CB
:10C10400009B9A81019B93F82430002B04D0019B5F
:10C11400062283F83C2003E0019B012283F83C20A3
:10C124000198FFF79BFF0346002B13D0009B0222CC
:10C134001A7504210198FFF7B0FF0390039B029343
:10C14400029B002B01D0029B0FE0019B052283F888
:10C15400312003E0019B032283F83120019B03F586
:10C164008262019BC3F820240023184605B05DF8C1
:10C1740004FB00B585B001900091019BDA69009B36
:10C184009A60019B1B6A9AB2009B9A81019B93F867
:10C194002430002B04D0019B062283F83C2003E0CA
:10C1A400019B012283F83C200198FFF757FF0346C7
:10C1B400002B13D0009B02221A7504210198FFF76B
:10C1C4006CFF0390039B0293029B002B01D0029B04
:10C1D4000FE0019B062283F8312003E0019B042237
:10C1E40083F83120019B03F58262019BC3F820246C
:10C1F4000023184605B05DF804FB82B00190019B52
:10C204001B68012B07D0019B1B68022B03D0019BE9
:10C214001B68042B01D1012300E00023184602B05F
:10C224007047000000B585B001900B468DF80330CF
:10C23400019B1B7883F00103DBB2002B01D00823A0
:10C2440009E1019B9DF803209A70019B03F22643A8
:10C2540007220021184614F089FC019B9B79002BCE
:10C2640003D0019B9B78012B0FD0019BDB79002B22
:10C2740003D0019B9B78012B07D0019BDB79002B1A
:10C2840014D0019B9B78022B10D1019B5B6B002B7C
:10C2940008D0019B012283F82D24019B5B6B0820AD
:10C2A400984703E0019B002283F82D249DF8033076
:10C2B40019460198FFF73EFE03461A46019B9A7001
:10C2C400019B5B6B002B20D0019B9B78032B03D03D
:10C2D400019B9B78042B18D1019B5B79002B14D014
:10C2E400019B93F82E3483F00103DBB2002B0CD0B6
:10C2F400019B002283F83024019B012283F82F2420
:10C30400019B5B6B0720984703E0019B002283F8A5
:10C314002F24019B3C3318220021184614F026FCDC
:10C32400019B012283F83C20019B2C331846FFF724
:10C3340064FF0346002B06D0019BDB6ADAB2019B43
:10C3440083F8512003E0019B012283F85120019BD3
:10C3540093F82430002B12D0019B28331846FFF7A2
:10C364004CFF0346002B06D0019B9B6ADAB2019B6B
:10C3740083F8522003E0019B012283F85220019BA1
:10C38400002283F85020019B9B78042B31D801A212
:10C3940052F823F0EDC30200ADC30200BDC3020096
:10C3A400CDC30200DDC30200019B3C331946019852
:10C3B400FFF70EFE03901DE0019B3C3319460198E4
:10C3C400FFF723FE039015E0019B3C3319460198C7
:10C3D400FFF78BFE03900DE0019B3C331946019857
:10C3E400FFF7C7FE039005E0019B002283F831208C
:10C3F40000E000BF019B9B78002B20D0019B03F140
:10C404005400019BD3F82014019B3C331A46FFF7D8
:10C41400EEFC0390039B002B01D0039B1BE0019BCC
:10C4240093F85420019B93F8303019461046FFF7D7
:10C43400E2FC0390039B002B01D0039B0BE0019BC8
:10C444005B6B002B06D0019B5B6B019A92F8312049
:10C45400104698470023184605B05DF804FB00BF5A
:10C4640000B585B001900091009B0393019B1B884C
:10C47400262B10D0262B13DC102B02D0112B05D029
:10C484000EE001990398FFF7F1FC0AE00199039883
:10C49400FFF7FBFC05E001990398FFF720FD00E09E
:10C4A40000BF00BF05B05DF804FBA8DF704700BF04
:10C4B400184662DF704700BF184600B585B001908A
:10C4C4000091009B06330393039B1A88019B5B88AE
:10C4D4009A420FD1039B5B89012B0BD1019B5B69B2
:10C4E400002B07D0019B5B69009A9088039A127B0A
:10C4F4000199984700BF05B05DF804FB00B585B00D
:10C5040001900091009B0393019B1B88502B04D145
:10C5140001990398FFF7D1FF00E000BF00BF05B009
:10C524005DF804FB10B592B001900091009B1A686D
:10C53400019B5A61484B02AC0FCB84E80F00019B6E
:10C5440003F1120202AB11461846FFF7B2FF119035
:10C55400119B1093109B002B01D0109B79E0019B41
:10C564009B7C8DF83A3041F22353ADF83830019A70
:10C574000EAB19460120FFF798FF1190119B0F9302
:10C584000F9B002B01D00F9B63E006AB2022002100
:10C59400184614F0EBFA41F22453ADF81830019B1D
:10C5A4009B7C8DF81A300123ADF81E300123ADF8C1
:10C5B4001C309DF8253043F002038DF825309DF89A
:10C5C400253043F010038DF8253001238DF82930F0
:10C5D40001238DF82B30019B1888019B03F10A027B
:10C5E40006AB1946FEF7BCFA1190119B002B01D043
:10C5F400119B2EE006AB20220021184614F0B6FA57
:10C6040041F22553ADF81830019B9B7C8DF81A300C
:10C614000123ADF81E300123ADF81C309DF8253000
:10C6240043F002038DF825309DF8253043F00803CC
:10C634008DF8253001238DF8293001238DF82A3017
:10C64400019B1888019B9A1C06AB1946FEF788FAD1
:10C654000346184612B010BD9412040082B0019033
:10C664000091019BDAB2009B1A70019B1A0A009B8D
:10C674000133D2B21A70019B1A0C009B0233D2B25E
:10C684001A70019B1A0E009B0333D2B21A70042352
:10C69400184602B07047A8DF704700BF184600B5BF
:10C6A40093B003900B4601928DF80B300023119345
:10C6B400119B43F010031193119B43F0400311931A
:10C6C400119B43F080031193119B43F480731193E6
:10C6D400119B43F4007311930023109300230F93D1
:10C6E40005AA0F9B134419461198FFF7B7FF034699
:10C6F4001A460F9B13440F9305AA0F9B1344194624
:10C704001098FFF7ABFF03461A460F9B13440F9391
:10C7140007AB20220021184614F028FA42F6BD2364
:10C72400ADF81C3001238DF81E300823ADF82030FD
:10C734000823ADF8223005AB09939DF8293043F066
:10C7440002038DF829309DF80B308DF82D30039BB2
:10C754005B8807A9019A1846FEF702FA03461846B1
:10C7640013B05DF804FB00B585B001900091009B07
:10C774009A88019B1A80019BD3F88420009B9B8894
:10C7840019461046FFF786FA0390019B9B68002B1D
:10C7940006D0039B002B03D0019B9B68039898470A
:10C7A40000BF05B05DF804FB82B001900091019BCD
:10C7B4004FF6FF721A8000BF02B0704700B585B013
:10C7C40001900091019B002B02D0009B002B01D112
:10C7D4000E237DE0009B9B68002B01D10E2377E0A4
:10C7E400009B5B6B002B01D10E2371E0019B4FF684
:10C7F400FF721A80009B5A68019B9A60009B1A681A
:10C80400019B5A60009B9A68019BC3F88020009B9F
:10C814005A68019B9A60009B1A68019B5A60009BAE
:10C824009A68019BC3F88020009B5A6B019BC3F854
:10C834008420294B1B68029310F058FF0390039B3C
:10C84400002B01D0039B43E0019B9A1C02AB1946C9
:10C854000120FFF720FF0390039B002B01D0039BD3
:10C8640036E0009B197B019B0C331A460198FFF7B5
:10C8740016FF0390039B002B01D0039B28E0019B30
:10C8840003F11402009B10331946104601F03DFADF
:10C894000390039B002B01D0039B19E0019B03F140
:10C8A4003802009B1C331946104600F0BDFF03906C
:10C8B400039B002B01D0039B0AE0009B1A8E019B73
:10C8C400A3F87420009B5A8E019BA3F872200023C6
:10C8D400184605B05DF804FBA412040000B585B049
:10C8E40001900091009B0393039B002B1FD0019B9D
:10C8F400002B1CD0039B38330199184600F061FFCC
:10C90400039B14330199184601F01CFB019B1B88FF
:10C91400102B02D0112B05D00AE001990398FFF7E0
:10C9240022FF05E001990398FFF73EFF00E000BFF6
:10C9340005B05DF804FBB8DF704700BF1846BADFE6
:10C94400704700BF1846BBDF704700BF184682B06F
:10C954000190019B1B7A012B0CBF01230023DBB246
:10C96400184602B0704782B00190019B002B01D1A0
:10C974000E2300E00723184602B0704700B583B0C9
:10C9840001900091019B002B02D0009B002B01D150
:10C994000E2331E0009B9B68002B03D0009B9B89F6
:10C9A400002B01D1072327E0009B1B68002B01D13A
:10C9B400072321E0009B5B68002B01D107231BE0C8
:10C9C40038220021019814F0D1F8019B00221A8624
:10C9D400009B1A68019B5A60009B5A68019B1A606D
:10C9E400074B9A88019B9A83054B1A68019B9A61AD
:10C9F400019B00221A720023184603B05DF804FB61
:10CA0400AC23002000B587B00190019B9B69019A7B
:10CA1400928D13440393019B9A8B019B9B8DD31A94
:10CA24009BB2ADF81030019B5B681B681888019BB2
:10CA34001B8E03AA1946FFF782FF0590059B132B53
:10CA44000FD0059B002B0DD0019B5B681B689B6876
:10CA5400002B07D0019B5B681B689B68059898476F
:10CA640000E000BF07B05DF804FB00B587B001909B
:10CA7400019B1B8C1A46019BDB8D1946019B5B8D28
:10CA8400CB1A9342A8BF1346ADF81630019BDB685E
:10CA9400019A528D13440293BDF81630ADF80C3050
:10CAA400019B5B681B681888019B1B8E02AA1946B0
:10CAB400FFF749FF0490049B132B0FD0049B002B1A
:10CAC4000DD0019B5B681B689B68002B07D0019B02
